{
  "contractName": "CertificateRegistry",
  "abi": [
    {
      "anonymous": false,
      "inputs": [
        {
          "indexed": true,
          "internalType": "bytes32",
          "name": "hash",
          "type": "bytes32"
        }
      ],
      "name": "CertificateRevoked",
      "type": "event"
    },
    {
      "inputs": [
        {
          "internalType": "bytes32",
          "name": "",
          "type": "bytes32"
        }
      ],
      "name": "certificates",
      "outputs": [
        {
          "internalType": "address",
          "name": "issuer",
          "type": "address"
        },
        {
          "internalType": "bytes32",
          "name": "hash",
          "type": "bytes32"
        },
        {
          "internalType": "bool",
          "name": "revoked",
          "type": "bool"
        }
      ],
      "stateMutability": "view",
      "type": "function",
      "constant": true
    },
    {
      "inputs": [
        {
          "internalType": "bytes32",
          "name": "hash",
          "type": "bytes32"
        }
      ],
      "name": "issueCertificate",
      "outputs": [],
      "stateMutability": "nonpayable",
      "type": "function"
    },
    {
      "inputs": [
        {
          "internalType": "bytes32",
          "name": "hash",
          "type": "bytes32"
        }
      ],
      "name": "getCertificate",
      "outputs": [
        {
          "internalType": "address",
          "name": "issuer",
          "type": "address"
        },
        {
          "internalType": "bytes32",
          "name": "certificateHash",
          "type": "bytes32"
        },
        {
          "internalType": "bool",
          "name": "revoked",
          "type": "bool"
        }
      ],
      "stateMutability": "view",
      "type": "function",
      "constant": true
    },
    {
      "inputs": [
        {
          "internalType": "bytes32",
          "name": "hash",
          "type": "bytes32"
        }
      ],
      "name": "revokeCertificate",
      "outputs": [],
      "stateMutability": "nonpayable",
      "type": "function"
    },
    {
      "inputs": [
        {
          "internalType": "bytes32",
          "name": "hash",
          "type": "bytes32"
        }
      ],
      "name": "isCertificateRevoked",
      "outputs": [
        {
          "internalType": "bool",
          "name": "",
          "type": "bool"
        }
      ],
      "stateMutability": "view",
      "type": "function",
      "constant": true
    }
  ],
  "bytecode": "0x608060405234801561001057600080fd5b50610845806100206000396000f3fe608060405234801561001057600080fd5b50600436106100575760003560e01c8063259350b41461005c578063742f06881461008c578063a1f81824146100be578063c6cbc52a146100da578063f333fe08146100f6575b600080fd5b610076600480360381019061007191906105d0565b610128565b6040516100839190610618565b60405180910390f35b6100a660048036038101906100a191906105d0565b610154565b6040516100b593929190610683565b60405180910390f35b6100d860048036038101906100d391906105d0565b6101ab565b005b6100f460048036038101906100ef91906105d0565b61030c565b005b610110600480360381019061010b91906105d0565b610471565b60405161011f93929190610683565b60405180910390f35b600080600083815260200190815260200160002060020160009054906101000a900460ff169050919050565b60006020528060005260406000206000915090508060000160009054906101000a900473ffffffffffffffffffffffffffffffffffffffff16908060010154908060020160009054906101000a900460ff16905083565b600073ffffffffffffffffffffffffffffffffffffffff1660008083815260200190815260200160002060000160009054906101000a900473ffffffffffffffffffffffffffffffffffffffff1673ffffffffffffffffffffffffffffffffffffffff161461024f576040517f08c379a000000000000000000000000000000000000000000000000000000000815260040161024690610717565b60405180910390fd5b60405180606001604052803373ffffffffffffffffffffffffffffffffffffffff1681526020018281526020016000151581525060008083815260200190815260200160002060008201518160000160006101000a81548173ffffffffffffffffffffffffffffffffffffffff021916908373ffffffffffffffffffffffffffffffffffffffff1602179055506020820151816001015560408201518160020160006101000a81548160ff02191690831515021790555090505050565b600073ffffffffffffffffffffffffffffffffffffffff1660008083815260200190815260200160002060000160009054906101000a900473ffffffffffffffffffffffffffffffffffffffff1673ffffffffffffffffffffffffffffffffffffffff16036103b0576040517f08c379a00000000000000000000000000000000000000000000000000000000081526004016103a790610783565b60405180910390fd5b60008082815260200190815260200160002060020160009054906101000a900460ff1615610413576040517f08c379a000000000000000000000000000000000000000000000000000000000815260040161040a906107ef565b60405180910390fd5b600160008083815260200190815260200160002060020160006101000a81548160ff021916908315150217905550807f44d80a438cb4fa3b5aedbe551ce3d9382e37f446917b783e1dee70a03b4180e360405160405180910390a250565b60008060008073ffffffffffffffffffffffffffffffffffffffff1660008086815260200190815260200160002060000160009054906101000a900473ffffffffffffffffffffffffffffffffffffffff1673ffffffffffffffffffffffffffffffffffffffff1603610519576040517f08c379a000000000000000000000000000000000000000000000000000000000815260040161051090610783565b60405180910390fd5b60008085815260200190815260200160002060000160009054906101000a900473ffffffffffffffffffffffffffffffffffffffff16925060008085815260200190815260200160002060010154915060008085815260200190815260200160002060020160009054906101000a900460ff1690509193909250565b600080fd5b6000819050919050565b6105ad8161059a565b81146105b857600080fd5b50565b6000813590506105ca816105a4565b92915050565b6000602082840312156105e6576105e5610595565b5b60006105f4848285016105bb565b91505092915050565b60008115159050919050565b610612816105fd565b82525050565b600060208201905061062d6000830184610609565b92915050565b600073ffffffffffffffffffffffffffffffffffffffff82169050919050565b600061065e82610633565b9050919050565b61066e81610653565b82525050565b61067d8161059a565b82525050565b60006060820190506106986000830186610665565b6106a56020830185610674565b6106b26040830184610609565b949350505050565b600082825260208201905092915050565b7f436572746966696361746520616c726561647920697373756564000000000000600082015250565b6000610701601a836106ba565b915061070c826106cb565b602082019050919050565b60006020820190508181036000830152610730816106f4565b9050919050565b7f436572746966696361746520646f6573206e6f74206578697374000000000000600082015250565b600061076d601a836106ba565b915061077882610737565b602082019050919050565b6000602082019050818103600083015261079c81610760565b9050919050565b7f436572746966696361746520616c7265616479207265766f6b65640000000000600082015250565b60006107d9601b836106ba565b91506107e4826107a3565b602082019050919050565b60006020820190508181036000830152610808816107cc565b905091905056fea264697066735822122070318b4b66815e70ae79eb1aab31b9b0803c6fb5aa98a7c788d7b485e9d6a72a64736f6c63430008130033",
  "immutableReferences": {},
  "source": "// SPDX-License-Identifier: MIT\npragma solidity ^0.8.19;\n\ncontract CertificateRegistry {\n\n    // Define a structure to store the details of a certificate\n    struct Certificate {\n        address issuer; // the address of the school that issued the certificate\n        bytes32 hash; // the hash of the certificate data\n        bool revoked; // whether the certificate has been revoked or not\n    }\n\n    // Define a mapping to store the certificates\n    mapping(bytes32 => Certificate) public certificates;\n\n    // Define an event to emit when a certificate is revoked\n    event CertificateRevoked(bytes32 indexed hash);\n\n    // Define a function to issue a certificate\n    function issueCertificate(bytes32 hash) public {\n        // Verify that the certificate has not already been issued\n        require(certificates[hash].issuer == address(0), \"Certificate already issued\");\n\n        // Store the certificate details in the mapping\n        certificates[hash] = Certificate({\n            issuer: msg.sender,\n            hash: hash,\n            revoked: false\n        });\n    }\n\n    function getCertificate(bytes32 hash) public view returns (address issuer, bytes32 certificateHash, bool revoked) {\n    // Verify that the certificate exists\n    require(certificates[hash].issuer != address(0), \"Certificate does not exist\");\n\n    // Retrieve the certificate details from the mapping\n    issuer = certificates[hash].issuer;\n    certificateHash = certificates[hash].hash;\n    revoked = certificates[hash].revoked;\n}\n\n    // Define a function to revoke a certificate\n    function revokeCertificate(bytes32 hash) public {\n        // Verify that the certificate exists and has not already been revoked\n        require(certificates[hash].issuer != address(0), \"Certificate does not exist\");\n        require(!certificates[hash].revoked, \"Certificate already revoked\");\n\n        // Mark the certificate as revoked\n        certificates[hash].revoked = true;\n\n        // Emit an event to notify listeners that the certificate has been revoked\n        emit CertificateRevoked(hash);\n    }\n\n    // Define a function to check if a certificate is revoked\n    function isCertificateRevoked(bytes32 hash) public view returns (bool) {\n        return certificates[hash].revoked;\n    }\n}",
  "sourcePath": "/home/sky/fyp/fyp-backend/contracts/CertificateRegistry.sol",
  "compiler": {
    "name": "solc",
    "version": "0.8.19+commit.7dd6d404.Emscripten.clang"
  },
  "schemaVersion": "3.4.13",
  "updatedAt": "2023-04-08T10:28:23.789Z",
  "networkType": "ethereum",
  "devdoc": {
    "kind": "dev",
    "methods": {},
    "version": 1
  },
  "userdoc": {
    "kind": "user",
    "methods": {},
    "version": 1
  }
}